:1007A6003F065B4F666D7D077F6F777C395E79719B
:0D07B600007177386D79067177386D795BC9
:10083D0002290000022B0000022100000227000007
:1006B3001203781207C330A10830A0051207F78090
:1006C3002120A10830A0051207DD801620A10820F3
:1006D300A005120865800B30A10820A0057F011238
:0E06E300062B1206F1AF22AE211202BF80C814
:10037800759003752902752A58E4F52BF52CAF2CD6
:100388001205DA7580FF12084EE4F580052CE52C7D
:100398007002052BC39408E52B6480948040DFE548
:1003A8002A152A70021529D3E52A9400E529940014
:1003B80050C7E4F529F52AF52BF52C7590FFC203F3
:1003C800C200C201C204C2021205D09007B2E4936F
:1003D800F580E4F52D120827EE3395E0FDFCE526BF
:1003E8002FF526E5253EF525E5243DF524E5233CB6
:1003F800F523052DE52DC3940840DAE47B08FAF9C6
:10040800F8AF26AE25AD24AC2312066F8E218F22BD
:0F04180020A10330A00620A10530A002C295222A
:1002BF00E4F51A751B01751C2CC3EE6480948050F5
:1002CF0010751240EF1F70011E6307FF6306FF805A
:1002DF0003E4F512AD07AC06EC1201298F0D8E0C5D
:1002EF008D0B8C0A7F007E407D1C7C44AB0DAA0CCD
:1002FF00A90BA80A12001E1201628F118E108D0F0A
:10030F008C0E751A07E47B0AFAF9F8AF11AE10AD2F
:10031F000FAC0E12066F74A62BF58274073AF58395
:10032F00E493FF7412251AF8A607AF11AE10AD0FA4
:10033F00AC0EE47B0AFAF9F812066F8F118E108D4E
:10034F000F8C0ED51ABF431580E4F51AAF1A12059C
:10035F00DA7412251AF8E6F58012084EE4F58005D6
:08036F001AE51AC3940840E4EA
:010377002263
:0A05D000F526F525F524F5237F0735
:1005DA00EFB40800504A9005E7F82828730205FF8F
:1005EA0002060302060A02060E020615020619028E
:1005FA000620020624C2A28002D2A2C2A3C2A42258
:10060A00C2A28002D2A2D2A3C2A422C2A28002D2D1
:10061A00A2C2A3D2A422C2A28002D2A2D2A3D2A4EC
:01062A0022AD
:1007C300758911758C3C758AB0758D3C758BB0D26B
:0A07D300AFD2A9D2ABD28CD28E2295
:03000B0002054D9E
:10054D00C0E0C0F0C083C082C0D075D000C000C074
:10055D0001C002C003C004C005C006C007758C3CB5
:10056D00758AB0300316E52A452970068521278541
:10057D002228052AE52A700A0529800675290075A5
:10058D002A00E52AB45821E529B4021CD3E52295A9
:10059D0028E5276480F8E52164809850057F0212D4
:1005AD00062B752900752A00D007D006D005D0047A
:1005BD00D003D002D001D000D0D0D082D083D0F0E3
:0305CD00D0E03249
:03001B00020427B5
:10042700C0E0C0F0C083C082C0D075D000C000C09B
:1004370001C002C003C004C005C006C007758D3CDB
:10044700758BB0052CE52C7002052B64F0452B70DD
:100457004E1205D09007B2E493F580752D0012086F
:1004670027EE3395E0FDFCE5262FF526E5253EF53D
:1004770025E5243DF524E5233CF523052DE52DC38E
:10048700940840DAE47B08FAF9F8AF26AE25AD24E4
:10049700AC2312066F8E218F22752B00752C00D08E
:1004A70007D006D005D004D003D002D001D000D0A9
:0A04B700D0D082D083D0F0D0E03224
:0A086500200006D200D293D29122A7
:1007DD00300111C201D294C295C290C292D203D2FD
:0A07ED0097C20422300002C200226D
:1007F700200114D295C294C291C293D290D292D2C0
:0808070097C204D201C20322D2
:0F062B008F0A7590BFD202C201C203C200C2047F
:10063A00E4F50B750B02AF0B1205DAE50AB40107F4
:10064A00E50B9007B5800AE50AB40208E50B9007A6
:10065A00BB93F58012084EE4F580050BE50BC394B5
:05066A000840D380CB25
:1006F10020013AD3E5229400E521648094855005D8
:1007010020032A801EC3E5229440E521648094865B
:10071100400BD290D292C203C297D2042220040D80
:0E07210020030AC290C292D203D297C20422D1
:07086F000000000000002260
:09080F001208181208181208184A
:0F08180012086F12086F12086F12086F02086F34
:0C084E0012080F12081812080F020818F8
:0C000E007F5F7E8A7D1DDDFEDEFADFF6DE
:01001A0022C3
:10078200E4FFFEC2B712084ED2B730B71412084EB9
:100792000FBF00010ED3EF9408EE940040EC7F00EF
:0307A200227F01B2
:0107A5002231
:0B075B0012078212084E12084E7FCCDD
:10076600E4FEC2B712086FEF1392B7120818120808
:0B0776006FD2B7EFC313FF0EBE08E701
:010781002255
:10072F00E4FDFCC2B70000D2B712086FA2B7E433E2
:10073F00FEC43333335480FBEFC3134BFF1208183F
:0B074F000DBD00010CED64084C70D8DB
:01075A00227C
:0B085A0012075B7F4412076602000ECD
:0800030012075B7FBE020766D5
:10082700E4FFFE12085A12000312072FAA07120745
:050837002FEFFEEAFFB7
:01083C002299
:10001E00EC4D6011E8497017ED33EC3304600DE4DC
:10002E00FCFFFEFD22E933E8330470F80201CE1224
:10003E00019958046009E4CC248150062850090225
:10004E0001D82840030201D5C0E0EB4A7044B980C4
:10005E0006D0E0FB0201C4EF4E701CBD8008EBFF22
:10006E00EAFEE9FD80EBE98DF0A4FEE5F002010762
:10007E00E9CDF9EAFEEBFFEF89F0A4FCE5F0CE89BD
:10008E00F0A42EFFE435F0CD89F0A42DFEE435F07A
:10009E008067EF4E7005BD80D780C3EF8BF0A4ACA8
:1000AE00F0EE8BF0A42CFCE435F0F8EF8AF0A42CE3
:1000BE00E5F038FCE433CB8DF0A42CFCE5F03BF8F6
:1000CE00EE8AF0A42CFCE5F038F8E433CF89F0A4E6
:1000DE002CFCE5F038CF3400CE89F0A42FFFE5F0EC
:1000EE003EFEE433C98DF0A42EFEE5F039CD8AF044
:1000FE00A42FFFE5F03EFEE43DFD33D0E0FB5007BC
:10010E000BBB000F0201D8EC2CFCEF33FFEE33FEDD
:06011E00ED33FD0201B00B
:1001240075F020800E75F010800575F0087D007E56
:10013400007F003392D530D5031201E3EC33401035
:10014400EF33FFEE33FEED33FDEC33FCD5F0ED225F
:0E015400E5F0247EA2D513CC92E7CDCEFF229B
:10016200EDD2E7CD33EC3392D524814006E4FFFE95
:10017200FDFC22FCE4CFCECDCC24E0501174FF80F4
:10018200EDC3CC13CCCD13CDCE13CECF13CF047091
:07019200F030D5DE0201E3AD
:10019900E9D2E7C933E833F892D5EDD2E7CD33ECAC
:0701A90033FC5002B2D52225
:1001B000EC30E7100FBF000C0EBE00080DBD0004B0
:1001C0000BEB6014A2D5EB13FCED92E7FD2274FF5C
:1001D000FCFDFEFF22E480F8A2D574FF13FC7D80B5
:0301E000E480EFC9
:030000000204C136
:0C04C100787FE4F6D8FD75812D02050857
:10066F00C2D5E830E70FB2D5E4C39BFBE49AFAE4B6
:10067F0099F9E498F8EC30E717B2D51206A51202F3
:10068F002DE4C39BFBE49AFAE499F9E498F880030C
:10069F0012022D30D50DE4C39FFFE49EFEE49DFDB5
:0406AF00E49CFC22A9
:0E01E300C3E49FFFE49EFEE49DFDE49CFC222D
:1004CD000206B3E493A3F8E493A34003F68001F28C
:1004DD0008DFF48029E493A3F85407240CC8C33330
:1004ED00C4540F4420C8834004F456800146F6DFFF
:1004FD00E4800B010204081020408090083DE47E4A
:10050D00019360BCA3FF543F30E509541FFEE493F3
:10051D00A360010ECF54C025E060A840B8E493A3BA
:10052D00FAE493A3F8E493A3C8C582C8CAC583CAE5
:10053D00F0A3C8C582C8CAC583CADFE9DEE780BE9D
:01084D0000AA
:1001F10075F008758200EF2FFFEE33FECD33CDCCC5
:1002010033CCC58233C5829BED9AEC99E582984047
:100211000CF582EE9BFEED9AFDEC99FC0FD5F0D624
:10022100E4CEFBE4CDFAE4CCF9A88222B800C1B94E
:100231000059BA002DEC8BF084CFCECDFCE5F0CB8C
:10024100F97818EF2FFFEE33FEED33FDEC33FCEBC5
:1002510033FB10D703994004EB99FB0FD8E5E4F980
:10026100FA227818EF2FFFEE33FEED33FDEC33FC6D
:10027100C933C910D7059BE99A4007EC9BFCE99A61
:10028100F90FD8E0E4C9FAE4CCFB2275F010EF2FA6
:10029100FFEE33FEED33FDCC33CCC833C810D707A6
:1002A1009BEC9AE899400AED9BFDEC9AFCE899F8E1
:0E02B1000FD5F0DAE4CDFBE4CCFAE4C8F92274
:00000001FF
